{
  "contractName": "Rental",
  "abi": [
    {
      "inputs": [],
      "payable": false,
      "stateMutability": "nonpayable",
      "type": "constructor"
    },
    {
      "constant": true,
      "inputs": [
        {
          "internalType": "uint256",
          "name": "",
          "type": "uint256"
        }
      ],
      "name": "rentals",
      "outputs": [
        {
          "internalType": "string",
          "name": "make",
          "type": "string"
        },
        {
          "internalType": "bool",
          "name": "isAvailable",
          "type": "bool"
        },
        {
          "internalType": "address",
          "name": "rentee",
          "type": "address"
        },
        {
          "internalType": "address",
          "name": "owner",
          "type": "address"
        },
        {
          "internalType": "uint256",
          "name": "year",
          "type": "uint256"
        },
        {
          "internalType": "string",
          "name": "licenseNumber",
          "type": "string"
        },
        {
          "internalType": "uint256",
          "name": "carId",
          "type": "uint256"
        }
      ],
      "payable": false,
      "stateMutability": "view",
      "type": "function"
    },
    {
      "constant": true,
      "inputs": [],
      "name": "getStopped",
      "outputs": [
        {
          "internalType": "bool",
          "name": "",
          "type": "bool"
        }
      ],
      "payable": false,
      "stateMutability": "view",
      "type": "function"
    },
    {
      "constant": false,
      "inputs": [],
      "name": "toggleContractActive",
      "outputs": [],
      "payable": false,
      "stateMutability": "nonpayable",
      "type": "function"
    },
    {
      "constant": true,
      "inputs": [],
      "name": "getCarCount",
      "outputs": [
        {
          "internalType": "uint256",
          "name": "",
          "type": "uint256"
        }
      ],
      "payable": false,
      "stateMutability": "view",
      "type": "function"
    },
    {
      "constant": false,
      "inputs": [
        {
          "internalType": "uint256",
          "name": "carId",
          "type": "uint256"
        }
      ],
      "name": "rent",
      "outputs": [
        {
          "internalType": "bool",
          "name": "",
          "type": "bool"
        }
      ],
      "payable": false,
      "stateMutability": "nonpayable",
      "type": "function"
    },
    {
      "constant": false,
      "inputs": [
        {
          "internalType": "uint256",
          "name": "carId",
          "type": "uint256"
        }
      ],
      "name": "returnCar",
      "outputs": [
        {
          "internalType": "bool",
          "name": "",
          "type": "bool"
        }
      ],
      "payable": false,
      "stateMutability": "nonpayable",
      "type": "function"
    }
  ],
  "bytecode": "0x608060405260008060006101000a81548160ff02191690831515021790555034801561002a57600080fd5b5033600060016101000a81548173ffffffffffffffffffffffffffffffffffffffff021916908373ffffffffffffffffffffffffffffffffffffffff1602179055506107178061007b6000396000f3fe608060405234801561001057600080fd5b50600436106100625760003560e01c80631385d24c1461006757806317f956e014610071578063197419d5146100b757806327436b59146100d95780637456be7d146100f7578063af94a1d11461013d575b600080fd5b61006f6102cf565b005b61009d6004803603602081101561008757600080fd5b8101908080359060200190929190505050610350565b604051808215151515815260200191505060405180910390f35b6100bf61040a565b604051808215151515815260200191505060405180910390f35b6100e1610420565b6040518082815260200191505060405180910390f35b6101236004803603602081101561010d57600080fd5b810190808035906020019092919050505061042d565b604051808215151515815260200191505060405180910390f35b6101696004803603602081101561015357600080fd5b8101908080359060200190929190505050610516565b6040518080602001881515151581526020018773ffffffffffffffffffffffffffffffffffffffff1673ffffffffffffffffffffffffffffffffffffffff1681526020018673ffffffffffffffffffffffffffffffffffffffff1673ffffffffffffffffffffffffffffffffffffffff1681526020018581526020018060200184815260200183810383528a818151815260200191508051906020019080838360005b8381101561022757808201518184015260208101905061020c565b50505050905090810190601f1680156102545780820380516001836020036101000a031916815260200191505b50838103825285818151815260200191508051906020019080838360005b8381101561028d578082015181840152602081019050610272565b50505050905090810190601f1680156102ba5780820380516001836020036101000a031916815260200191505b50995050505050505050505060405180910390f35b600060019054906101000a900473ffffffffffffffffffffffffffffffffffffffff1673ffffffffffffffffffffffffffffffffffffffff163373ffffffffffffffffffffffffffffffffffffffff161461032657fe5b6000809054906101000a900460ff16156000806101000a81548160ff021916908315150217905550565b60008060009054906101000a900460ff161561036857fe5b60006001838154811061037757fe5b906000526020600020906006020190503373ffffffffffffffffffffffffffffffffffffffff168160020160009054906101000a900473ffffffffffffffffffffffffffffffffffffffff1673ffffffffffffffffffffffffffffffffffffffff16146103e357600080fd5b60018160010160006101000a81548160ff0219169083151502179055506001915050919050565b60008060009054906101000a900460ff16905090565b6000600180549050905090565b60008060009054906101000a900460ff161561044557fe5b600061044f610420565b90506000831015801561046157508083105b61046a57600080fd5b60006001848154811061047957fe5b90600052602060002090600602019050600115158160010160009054906101000a900460ff161515146104ab57600080fd5b338160010160016101000a81548173ffffffffffffffffffffffffffffffffffffffff021916908373ffffffffffffffffffffffffffffffffffffffff16021790555060008160010160006101000a81548160ff021916908315150217905550600192505050919050565b6001818154811061052357fe5b9060005260206000209060060201600091509050806000018054600181600116156101000203166002900480601f0160208091040260200160405190810160405280929190818152602001828054600181600116156101000203166002900480156105cf5780601f106105a4576101008083540402835291602001916105cf565b820191906000526020600020905b8154815290600101906020018083116105b257829003601f168201915b5050505050908060010160009054906101000a900460ff16908060010160019054906101000a900473ffffffffffffffffffffffffffffffffffffffff16908060020160009054906101000a900473ffffffffffffffffffffffffffffffffffffffff1690806003015490806004018054600181600116156101000203166002900480601f0160208091040260200160405190810160405280929190818152602001828054600181600116156101000203166002900480156106d25780601f106106a7576101008083540402835291602001916106d2565b820191906000526020600020905b8154815290600101906020018083116106b557829003601f168201915b505050505090806005015490508756fea265627a7a7231582050cbf72c4f4b9ab9f24511d499b07101be4b56f5aeb3aa541b8395e54dfc035764736f6c63430005100032",
  "source": "pragma solidity >=0.4.17 <0.7.0;\n\nimport {CarLib} from \"./CarLib.sol\";\n\ncontract Rental {\n    \n    bool private stopped = false;\n    address private manager;\n\n    constructor() public  \n    {\n        manager = msg.sender;\n    }\n\n    modifier isAdmin() {\n        assert(msg.sender == manager);\n        _;\n    }\n    \n    function getStopped() public view returns(bool) { return stopped; }\n\n    \n    function toggleContractActive() isAdmin public {\n        stopped = !stopped;\n    }\n\n    CarLib.Car[] public rentals;\n\n    function getCarCount() public view returns(uint) {\n        return rentals.length;\n    }\n\n    function rent(uint carId) public returns (bool) {\n       \n       assert(!stopped); \n        \n        \n      uint totalCars = getCarCount();\n      \n      require(carId >= 0 && carId < totalCars);\n    \n    CarLib.Car storage carToBeRented = rentals[carId];\n    \n    require(carToBeRented.isAvailable == true);\n      \n      carToBeRented.rentee = msg.sender;\n      \n      carToBeRented.isAvailable = false; \n      \n      return true;\n    }\n\n    function returnCar(uint carId) public  returns (bool) {\n        assert(!stopped); \n        \n        CarLib.Car storage specificCar = rentals[carId];\n        require(specificCar.owner == msg.sender);\n        specificCar.isAvailable = true;\n        return true;\n    }\n\n}",
  "sourcePath": "/home/driscoll/Desktop/EasyCarRent/contracts/Rental.sol",
  "compiler": {
    "name": "solc",
    "version": "0.5.16+commit.9c3226ce.Emscripten.clang"
  },
  "schemaVersion": "3.2.3",
  "updatedAt": "2020-08-16T04:32:45.566Z",
  "devdoc": {
    "methods": {}
  },
  "userdoc": {
    "methods": {}
  }
}